S0170000776F64655F72613870315F435055302E73726563DC
S31502000000C053002235C300020DC2000231C30002F2
S3150200001031C3000231C3000231C3000231C3000200
S31502000020000000000000000000000000898B0002B2
S3150200003031C3000200000000A18B0002098C0002FD
S315020000407D8E0002ED9E0002A9BA0002CDB3000227
S31502000050EDB10002E59B0002399C00028D9C000274
S31502000060719D0002D59D0002299E000279A500021B
S311020000700DA7000231A8000215A900022B
S3150200007C3530210036307200073C08002038420029
S3150200008C14383100153831000038000001380000F0
S3150200009C023800000338BE0004380A0005383F0057
S315020000AC063806000738E4000838030009385600FB
S315020000BC0A3801000B38E0000C3807000D386900CD
S315020000CC0E3803000F3821001338060018360000CC
S315020000DC12362900093752000C370300023A09007E
S315020000EC033A6300143A0900153A6300044002000D
S315020000FC02301C000630C3001347030007440400F9
S3150200010C0B4635000C4622003748220024380200E2
S3150200011C0150A300033500000331110008308200A0
S3150200012C08304200033103001730FF001830FF007D
S3150200013C34301A00373013000831010030363600DD
S3150200014C31360E003236E200333612002136E0002A
S3150200015C0437A00003375A00153778001737010009
S3150200016C0B37600005371A000539020006391000F4
S3150200017C01390A0031371200003608000136330005
S3150200018C2D306000203652001B3720001C475000D1
S3150200019C133A4300183A0000193AF80035361300A0
S315020001AC363603003436400022360100013C340058
S315020001BC043C2800053C9800063C0000073C08005D
S315020001CC083C0000093C1C000A3C9C000B3C40000D
S315020001DC103800001138100012380000083764007D
S315020001EC0140020005401A00003000000430FF00F6
S315020001FC0E3058002E30000000436F001F500100D5
S3150200020C0E4400000050A7000F3A3000103A2800A6
S3150200021C1B3A30001E3A2600113A60001F3A1400AF
S3150200022C005823000158140002580F0003580F00FF
S3150200023C045812000558260006580C0007580800E8
S3150200024C08580500095805000A5808000B580D00F5
S3150200025C0C5808000D5803000E5800000F580000E9
S3150200026C10580300115809001258070013580300BE
S3150200027C14580000155801001658030017580800A8
S3150200028C18580D00195808001A5805001B58060074
S3150200029C1C5808001D580E001E5829001F5817001E
S315020002AC20581100215811002258150023582800F5
S315020002BC245846002558260026580800275826009A
S315020002CC28586400295826002A5824002B58220044
S315020002DC2C5824002D5824002E5806002F58220084
S315020002EC3058400031584200325824003358260008
S315020002FC3458240035582200365822003758260026
S3150200030C38584400395824003A5826003B582800DD
S3150200031C3C5842003D58CE008051FF008151F200FC
S3150200032C825100008351140084512500855124000A
S3150200033C86510900875109008851090089517500B7
S3150200034C8A5154008B51E0008C51B2008D514200FF
S3150200035C8E513D008F515600905146009151F80036
S3150200036C92510400935170009451F0009551F00093
S3150200037C96510300975101009851040099511200AD
S3150200038C9A5104009B5100009C5106009D5182001B
S3150200039C9E51380080540100815408008254140086
S315020003AC8354280084545100855465008654710088
S315020003BC87547D0088548700895491008A549A0088
S315020003CC8B54AA008C54B8008D54CD008E54DD008B
S315020003DC8F54EA0090541D0081531E0082535B0019
S315020003EC8353080084530A0085537E008653880083
S315020003FC87537C0088536C00895310008A53010082
S3150200040C8B53980080550600835540008455100086
S3150200041C895510008A5500008B55F8001D50400076
S3150200042C005308000153300002531000035300001E
S3150200043C04530800055330000653080007531600F0
S3150200044C095308000A5330000B5304000C530600E0
S3150200045C2550000008300200010000000000800751
S3150200046C38040100100004002003E0010000000023
S3150200047C0500000000000001020DF3020A5FC20132
S3150200048C222200020F313001030203093002030259
S3150200049C03099051A5E078BBF6A3E008F6A3E008A1
S315020004ACF6E51F7045751E20D234120C0C789C1280
S315020004BC0BD278A8A61408A61578B3A60918760145
S315020004CC784CA60A08A60B786CA61408A61578B35F
S315020004DCE6788CF6751F0178BBE678B8F678BCE63A
S315020004EC78B9F678BDE678BAF62279B8E7D378BB4E
S315020004FC964005E796FF8008C379BBE778B896FF66
S3150200050C78A6760008A60779B9E7D378BC96400593
S3150200051CE796FF8008C379BCE778B996FF120C13ED
S3150200052C79BAE7D378BD964005E796FF8008C3797A
S3150200053CBDE778BA96FF120C1378B2E625E0244C86
S3150200054CF8A60A08A60B78B2E625E0246CF8A614DF
S3150200055C08A61578B2E6248CF8A60978B2E6240128
S3150200056CFFE433FED3EF940FEE6480948040047F55
S3150200057C00800578B2E604FF78B2A607E51FB4013F
S3150200058C0AE66003020309751F0222120C0C789EFE
S3150200059C120BD2120C0C78A0120BFF78AA120BFFBC
S315020005ACFF78ACA60608A607788CE678B4F6788CA3
S315020005BCE678B5F67F01EF25E0244D789F120BC93C
S315020005CC500A120BAB789EA60408A605EF25E0246A
S315020005DC6D78AB120BC9500FEF25E0246C120BB0E1
S315020005EC78AAA60408A605748C2FF978B4E6C397E4
S315020005FC5008748C2FF8E678B4F6EF25E0244DF902
S3150200060CD378A1120BCB400A120BAB78A0A6040826
S3150200061CA605EF25E0246DF9D378AD120BCB400F6E
S3150200062CEF25E0246C120BB078ACA60408A6057470
S3150200063C8C2FF978B5E6D3974008748C2FF8E678A8
S3150200064CB5F60FEF6410600302013EC3799F78A1E1
S3150200065C120BF778A2F608A607C379AB78AD120B84
S3150200066CF778AEF608A607C379B4E778B59608F616
S3150200067CD3799FE7789D9619E71896400509E708FE
S3150200068C8006C3799DE7789F120BF8FE78A4A6061E
S3150200069C08A607D379ABE778A99619E71896400509
S315020006AC09E7088006C379A9E778AB120BF8FE783E
S315020006BCB0A60608A60779B4E7D378B3964005E741
S315020006CC96FF8008C379B3E778B496FF78B7A60786
S315020006DCE51F640260030202EF903024740FF0905F
S315020006EC0E8AE493FF18E6C39F4003020309903077
S315020006FC24740EF078A2120BD9120BA2900E87124A
S3150200070C0BB7789E120BE87B04120B90C312070EE2
S3150200071C506F900E8BE493FF78B7E69F40079030AC
S3150200072C24740A8016900E89E493FFD378A7E69F69
S3150200073C18E694004009903024740BF0751F057866
S3150200074CAE120BD9120BA2900E88120BB778A81206
S3150200075C0BE87B40120B90D312070E4024903024E8
S3150200076C740CF0751F05229030247401F0E51FB449
S3150200077C050FD201C202E4F51FF51ED234D232D2D3
S3150200078C3522E51F6003020393F51ED2347534FF3E
S3150200079C75350E753655753701120D85E4FFEF2545
S315020007ACE0244CF8E4F608F60FBF34F2900E8CE413
S315020007BC93FFE549C39F50047F0580027FFB78BBFC
S315020007CCA607120EBC40047F0380027F3078BAA6BD
S315020007DC07E618F608E678B7F678BAE678B8F67841
S315020007ECBD7633E408F678B6760175480278B4F627
S315020007FC08F674FF78BFF608F6751F0178BAE67527
S3150200080CF005A4F549120AFDC2362278B6E6D3944F
S3150200081C0040021622E51FB40523E4F51FC2017837
S3150200082CB4E6FE08E6FF784CA60608A607A236E44E
S3150200083C33F53C903028F0751E10D23422E54975FA
S3150200084CF0058478BAF6900E85E493FF25E0240A27
S3150200085CF8E6FC08E6FD78BAE625E0244CF8A60490
S3150200086C08A605EF120EC3D378B596EE1896400D70
S3150200087C78BAE678B7F678B4A60608A607900E8577
S3150200088CE493120EC3C378C096EE1896500D78BA3E
S3150200089CE678B8F678BFA60608A60778B4E6FE0888
S315020008ACE6C378C096FFEE189678C1F608A60790AE
S315020008BC0E8EE418120EA14002D23678BAE608263B
S315020008CC08F6E51F6401704AE6C378BE120E97401D
S315020008DC05120E924039120EBA40047FFE80027F38
S315020008EC0278BBA60778B7E6240378BDF678B7E696
S315020008FC24FD78BEF6120EBA400678BEE6FF8004D8
S3150200090C78BDE6FF78BCA607751F0278B67601029B
S3150200091C0559E51F6402600302053978BCE6FFC37C
S3150200092C78BE120E984008120E9250030205371228
S3150200093C0EBA40047FFF80027F0178BBA60778B708
S3150200094CE60478BDF678B7E61478BEF618120EBC35
S3150200095C4004E6FF80027F0078BDA607D308E66452
S3150200096C8094804004E6FF80027F0078BEA607C30F
S3150200097C18E6648094B35004E6FF80027F3378BD98
S3150200098CA607C308E6648094B35004E6FF80027F90
S3150200099C3378BEA607120EBA400678BEE6FF80046E
S315020009AC78BDE6FF78BCA607751F0378B67601807C
S315020009BC20E51F6403702678BCE6FFC378BE120ED0
S315020009CC984005120E92400978B7E678BCF6751F68
S315020009DC0478BCE675F005A4F549020AFDE51FB4D8
S315020009EC041F900E8DE478C1120EA14002D2367508
S315020009FC1F057534FF75350E753659753701120D8F
S31502000A0C8522EF8DF0A4A8F0CF8CF0A428CE8DF021
S31502000A1CA42EFE22BC000BBE0029EF8DF084FFAD86
S31502000A2CF022E4CCF875F008EF2FFFEE33FEEC3330
S31502000A3CFCEE9DEC984005FCEE9DFE0FD5F0E9E42C
S31502000A4CCEFD22EDF8F5F0EE8420D21CFEADF0754B
S31502000A5CF008EF2FFFED33FD4007985006D5F0F264
S31502000A6C22C398FD0FD5F0EA22E88FF0A4CC8BF0C6
S31502000A7CA42CFCE98EF0A42CFC8AF0EDA42CFCEA46
S31502000A8C8EF0A4CDA8F08BF0A42DCC3825F0FDE980
S31502000A9C8FF0A42CCD35F0FCEB8EF0A4FEA9F0EB76
S31502000AAC8FF0A4CFC5F02ECD39FEE43CFCEAA42D82
S31502000ABCCE35F0FDE43CFC2275F008758200EF2F72
S31502000ACCFFEE33FECD33CDCC33CCC58233C5829B00
S31502000ADCED9AEC99E58298400CF582EE9BFEED9A26
S31502000AECFDEC99FC0FD5F0D6E4CEFBE4CDFAE4CCC2
S31502000AFCF9A88222B800C1B90059BA002DEC8BF0C4
S31502000B0C84CFCECDFCE5F0CBF97818EF2FFFEE3380
S31502000B1CFEED33FDEC33FCEB33FB10D703994004AB
S31502000B2CEB99FB0FD8E5E4F9FA227818EF2FFFEED2
S31502000B3C33FEED33FDEC33FCC933C910D7059BE903
S31502000B4C9A4007EC9BFCE99AF90FD8E0E4C9FAE45F
S31502000B5CCCFB2275F010EF2FFFEE33FEED33FDCCFE
S31502000B6C33CCC833C810D7079BEC9AE899400AEDE8
S31502000B7C9BFDEC9AFCE899F80FD5F0DAE4CDFBE490
S31502000B8CCCFAE4C8F922EB9FF5F0EA9E42F0E99D15
S31502000B9C42F0E89C45F022E8600FEFC333FFEE33D8
S31502000BACFEED33FDEC33FCD8F122E493FC74019395
S31502000BBCFD740293FE740393FF22E6FB08E6F90822
S31502000BCCE6FA08E6CBF822ECF608EDF608EEF6089D
S31502000BDCEFF622A42582F582E5F03583F58322D041
S31502000BEC83D082F8E4937012740193700DA3A393CD
S31502000BFCF8740193F5828883E4737402936860EF48
S31502000C0CA3A3A380DF9038047850120C7F9038008F
S31502000C1CE0FEA3E0FDEDFFC3120C38903810120C67
S31502000C2C2C9038067852120C7F903802E0FEA3E024
S31502000C3CFDEDFFC3120C38903812120C2CA3E0B443
S31502000C4C310778507950120C95903814E0B471151E
S31502000C5C7850E6FE08E67802CEC313CE13D8F9799D
S31502000C6C51F7EE19F7903815E0B4310778527952EC
S31502000C7C120C95903815E0B471157852E6FE08E61A
S31502000C8C7802CEC313CE13D8F97953F7EE19F77946
S31502000C9C50120C6709120C67AF45120C1D7D5012CF
S31502000CAC059C7858A60608A607AF43120C1D7D5064
S31502000CBC12059C7854A60608A607AF467852120C63
S31502000CCC1F7D3C12059C785AA60608A607AF447EE1
S31502000CDC007852120C217D3C12059C7856A6060809
S31502000CECA607C37859E6940818E6940050057600D0
S31502000CFC087608C3785BE6940818E69400500576E5
S31502000D0C000876087858120C54FFD37855E69F18CB
S31502000D1CE69E400E7858E613FE08E67855120C8AC3
S31502000D2C80047E007F00785C120C4CFFD37857E669
S31502000D3C9F18E69E400E785AE613FE08E67857127E
S31502000D4C0C8A80047E007F00E4FCFD786012074F5B
S31502000D5C7858120C54785526FFEE1836FE78641223
S31502000D6C0C4C785726FFEE1836FEE4FCFD7868121A
S31502000D7C074F120C5C7864120742D312070E400816
S31502000D8C120C5C786412074F7852120C5E78681259
S31502000D9C0742D312070E400A7852120C5E7868127A
S31502000DAC074FE4FD785F120C772401120C4078632E
S31502000DBC120C772402120C407867120C7724031259
S31502000DCC0C40786B120C772404120C400DBD05D422
S31502000DDCC20EC20622850841903024E0F53DA3E0FE
S31502000DECF53EA3E0F53FA3E0F540A3E0F53CD23394
S31502000DFCE54112076709B40309B80409BE0509C11E
S31502000E0C0609C40709CD0809DE1209E08009E58145
S31502000E1C0A438F0A32900A43910A43920A43930A6F
S31502000E2C43940A43980A409F00000A5E120ECE2291
S31502000E3C120ECED20322D20322C20322A236E433EC
S31502000E4CF53C020A43C201C202C203120D14751EFC
S31502000E5C70D234020A43804D120F17805E853D43D1
S31502000E6C853E44E545C313FFE543C39F50028F43BA
S31502000E7CE546C313FFE544C39F50028F44E545C3C1
S31502000E8C13FFFDE543900E7F120EEA4004EE9FF52A
S31502000E9C43E546C313FFFDE544900E80120EEA406D
S31502000EAC04EE9FF54412078D8011854046853F4519
S31502000EBC853E44853D43800302078D903024E53DF3
S31502000ECCF0A3E53EF0A3E53FF0A3E540F0A3E53C35
S31502000EDCF0903023E4F022C0E0C083C082C0D090F0
S31502000EEC3F0CE0F532E53230E34C30353E9060197A
S31502000EFCE0F50AA3E0F50B90601DE0F514A3E0F50E
S31502000F0C15300106303203D38001C3920930020632
S31502000F1C303203D38001C3920A30320C30030920DB
S31502000F2C0206200103D38001C3920B903001E044E8
S31502000F3C40F0E054BFF0E53230E11430331190301A
S31502000F4C22E0F508E4F0300003D38001C39208E5F1
S31502000F5C3230E5129056A1E0F5093030093005031E
S31502000F6CD38001C3920D903F0CE532F0D0D0D082E3
S31502000F7CD083D0E032900E7DE493FE740193FFC3CE
S31502000F8C900E7B7401939FFFE4939EFEE48F3B8E3F
S31502000F9C3AF539F538AB3BAA3AA939A838AF49FC28
S31502000FACFDFE1205F1120EFCE47BFFFAF9F81206AD
S31502000FBC7C120EFC900E69E4120F11120EFCE485E3
S31502000FCC4837F536F535F534AF37AE36AD35AC3484
S31502000FDCA3120F118F378E368D358C34E53B453780
S31502000FECF53BE53A4536F53AE5394535F539E53811
S31502000FFC4534F538E4F522F523853B31853A3085BF
S3150200100C392F85382E020DC5AD39AC38FAF9F812DE
S3150200101C05F18F3B8E3A8D398C38AB37AA36A9350A
S3150200102CA83422EF25E0244CF8E6FC08E6FD2293D0
S3150200103CFFE4FCFDFE1205F18F378E368D358C34AE
S3150200104C22F9C3E69718E6199722FFA60608A60701
S3150200105C22E6FE08E6FFE48F378E36F535F53422A6
S3150200106CE6FE08E6FFE48F3B8E3AF539F53822E7C1
S3150200107C96FF19E7189622FFA60608A607786CE6CD
S3150200108CFE08E622784CE6FE08E62278A7EF26F65C
S3150200109C18E436F62278507E00E6FC08E6FD1205C8
S315020010AC8A7C0022E0A3E075F002A4FFAEF0C3082E
S315020010BCE69FF618E69EF622FFE5F034608F82F57F
S315020010CC83ECF022E4FCFD12074F785AE6C313FEBA
S315020010DC08E613227850E6FE08E6FFE4FCFD22E75A
S315020010ECC4F854F0C868F709E7C4540F48F722E667
S315020010FCFCED75F004A422E0FEA3E0FDEEF6ED088D
S3150200110CF62213FFC3E69FFF18E69EFE22E6C313E2
S3150200111CF708E61309F72275890375A80175B80451
S3150200112C7534FF75350E75361575370D120D85121C
S3150200113C0009120F17120006D200D233D2AF753441
S3150200114CFF75350E753649753703120D853008094C
S3150200115CC23312095DC208D233300B09C2351200F2
S3150200116C0EC20BD235300909C23512030AC209D294
S3150200117C35300E0312078D3034D3903029E51EF02C
S3150200118CB41005903023E4F0C23480C1E4F54990E2
S3150200119C0E7793FFE48F37F536F535F534AF37AE68
S315020011AC36AD35AC34900E6A120F118F378E368DE2
S315020011BC358C34900E72120732EF4537F537EE4501
S315020011CC36F536ED4535F535EC4534F534E4F52290
S315020011DCF52385373185363085352F85342E120D1C
S315020011ECC5E4F522F523900E72120F05120DC5E415
S315020011FCF522F523900E6E120F05020DC5AE35AF14
S3150200120C36E4FDEDC395375033120F52E493F5389D
S3150200121C740193F53945386023853982853883E024
S3150200122CFC120F527403935204120F52740293421D
S3150200123C04853982853883ECF00D80C722A2AF92E1
S3150200124C31C2AFE5234522900E5D600B120F47E0CB
S3150200125CF52CE0F52D800F120F47E530F0900E5F5E
S3150200126C120F47E531F0A23192AF22787FE4F6D81D
S3150200127CFD7581CB020C9F001105251633025072A7
S3150200128C6F66697420201400100056401A30297EAD
S3150200129C00300420DF300540BF500300FD5027010B
S315020012ACFE600011003F0530003F0622003F012A76
S315020012BC003F020000360607003F0B0FF00000004D
S315020012CC00300140BF300100BF302970003A0000E7
S315020012DCFF3A0000FF360336024144582018100A22
S315020012EC04040003FF6400008000000000000002FA
S315020012FC040600039800CC503C281E0C0C0000106F
S3150200130C0C10040C6E060500A55A78BCE6D308FF31
S3150200131CE66480F8EF6480982293FF7E00E6FC0870
S3150200132CE6FD12058A78BFE6FC08E6FDD3EF9DEED4
S3150200133C9C2278BBD3E6648094802225E0240AF8AA
S3150200134CE6FE08E6FF22D201C202E4F51FF51ED222
S3150200135C34D232D235D201C202F51FF51ED234D2A4
S3150200136C32222DFDE433FCE493FEFBD3ED9B748019
S3150200137CF86C98228F3B8E3A8D398C3822120732B2
S3150200138C8F318E308D2F8C2E2293F9F802071F90F7
S3150200139C0E811207328F468E458D448C43D206300F
S315020013AC0603D38001C3920E22C0E0C083C0829092
S315020013BC3F0DE0F533E533F0D082D083D0E032E452
S315020013CC93FE740193F5828E83228F828E8375F03F
S315020013DC04ED02075B000000FF0303000103A000FB
S315020013EC200000000000000000000B0B000000F0C3
S315020013FC00000000000000000000000000000000D9
S3150200140C0100000000000100000018880000000026
S30F0200141C000000000100400001017B
S315020014280348044B834202D0034B03B11847704763
S31502001438AC130022AC13002200000000064B074939
S31502001448C91A891048BF0131491003D0044B0BB1A0
S3150200145801481847704700BFAC130022AC1300229C
S315020014680000000010B5064C237843B9FFF7D8FFF1
S31502001478044B13B10448AFF300800123237010BD57
S31502001488F05300220000000028F1C90208B5054BF6
S315020014981BB105490548AFF30080BDE80840FFF7D0
S315020014A8CDBF00BF00000000F453002228F1C90294
S315020014B8037843B1052B05D1074A416813680B43E4
S315020014C81360704770474368B3F5807FF9D10122EC
S315020014D8024B1A70704700BF0C54002210540022A7
S315020014E80378032B02D10122014B1A70704700BF01
S315020014F811540022F0B529230026164C164D174F13
S3150200150885B008E04FF47A710AF038FE94F867302D
S315020015183534FD2B1CD094F8332014F8010CFE2B1D
S31502001528CDE9006603968DF801308DF80220ADF8F4
S3150200153804000294E6D0694638462E7007F030FF5A
S315020015482B78002BFCD094F867303534FD2BE2D18A
S3150200155805B0F0BD15E6000210540022D45500224B
S31502001568F8B5164D2B781BBB42F21074144E03F0D5
S31502001578FF0708E0BCB1012108460AF0FFFD2B78F7
S31502001588013CA4B213B93378002BF3D000232B7095
S315020015982B7823B1377887F001073846F8BD002C37
S315020015A8F8D13846F8BD2C702B78002BF5D0F1E728
S315020015B800232B70024E2B78ECE700BFBB550022A6
S315020015C8BA55002203462DE9F04300240D46174674
S315020015D8144E83B0DFF85090DFF850805BBA0122D0
S315020015E878213046ADF8043008F07EFD01A90123C2
S315020015F80222304689F8004088F8004008F028FEA2
S31502001608FFF7AEFF3A4623462946304689F8004098
S3150200161888F8004008F034FEFFF7A2FFE8B203B0EC
S31502001628BDE8F08340560022BB550022BA55002277
S31502001638F0B5044689B018B1012831D009B0F0BD19
S3150200164843F2305521232F4EADF8005001222E4D7C
S3150200165878212E488DF8023008F046FD2346694661
S3150200166803222A4834702C7008F0F2FDFFF778FF3F
S3150200167843F2306C7223012278212448ADF800C067
S315020016888DF8023008F030FD0322234669461F48CA
S3150200169834702C7008F0DCFDFFF762FF09B0F0BD6C
S315020016A843F230554123ADF8005000250246154F46
S315020016B8154E782115488DF8023008F015FD2B468F
S315020016C86946032211483D70357008F0C1FDFFF7DF
S315020016D847FF722243F230638DF8022078212246B0
S315020016E80A48ADF8003008F0FFFC03222B4669468B
S315020016F806483D70357008F0ABFDFFF731FF09B0BB
S31502001708F0BD00BFBB550022BA5500224056002242
S315020017182DE9F04F93468BB006464FF03807CDE9D0
S3150200172800B34FF0000B664CDFF89C810D46330A76
S31502001738ADF808700122634F782120468DF80A30E9
S3150200174808F0D2FC5B4602A90322204688F800B0BC
S3150200175887F800B008F07CFDFFF702FF4FF49C7291
S315020017685FFA86FAADF808207821012220468DF81C
S315020017780AA008F0B9FC5B4602A90322204688F8AB
S3150200178800B087F800B008F063FDFFF7E9FE4FF4F2
S315020017980E72ADF808202A0A8DF80A20782101224D
S315020017A8204608F0A1FC5B4602A90322204688F8D7
S315020017B800B087F800B008F04BFDFFF7D1FE4FF4F2
S315020017C84E725FFA85F9ADF8082078210122204683
S315020017D88DF80A9008F088FC5B4602A90322204687
S315020017E888F800B087F800B008F032FDFFF7B8FEB7
S315020017F84FF48762ADF80820009A782116442046ED
S31502001808012236128DF80A6008F06EFC5B4602A9C0
S315020018180322204688F800B087F800B008F018FDC1
S31502001828FFF79EFE009A782192444FF4A76220465B
S31502001838ADF8082001228DF80AA008F055FC5B468F
S3150200184802A90322204688F800B087F800B008F0FB
S31502001858FFFCFFF785FE4FF4C762019EADF808202C
S3150200186835440122782120462D128DF80A5008F0B7
S315020018783BFC5B4602A90322204688F800B087F89B
S3150200188800B008F0E5FCFFF76BFE4FF4E7610122B2
S31502001898ADF8081020467821B1448DF80A9008F070
S315020018A823FC03225B4602A9204688F800B087F883
S315020018B800B008F0CDFCFFF753FE0BB0BDE8F08F81
S315020018C840560022BA550022BB5500222DE9F047A0
S315020018D8044688B08A4617466946012245F201003F
S315020018E89846BDF84090FFF76DFE002C40F00A813D
S315020018F84FF4A87320F02000012278218DF8020007
S315020019088D4E8E488E4DADF8003008F0EDFB032261
S3150200191823466946894834702C7008F099FCFFF70B
S315020019281FFE41F238030024ADF8003001224FEAC7
S315020019381A23782181488DF8023008F0D5FB234610
S31502001948694603227D4834702C7008F081FCFFF743
S3150200195807FE41F238130122782178488DF802A051
S31502001968ADF8003008F0C0FB2346694603227348E7
S3150200197834702C7008F06CFCFFF7F2FD41F2382344
S315020019880122ADF8003078213B0A6C488DF8023006
S3150200199808F0AAFB234669460322684834702C706D
S315020019A808F056FCFFF7DCFD41F2383341F2322AE1
S315020019B88DF802700327012278216048ADF80030BD
S315020019C808F092FB2346694603225C4834702C7061
S315020019D808F03EFCFFF7C4FD012278215748ADF80E
S315020019E800A08DF8027008F07FFB23463A46694646
S315020019F8524834702C7008F02BFCFFF7B1FD40F604
S31502001A0838030122ADF8003078214FEA18234B48F3
S31502001A188DF8023008F068FB23463A46694647487D
S31502001A2834702C7008F014FCFFF79AFD40F6381350
S31502001A38012278214148ADF800308DF8028008F07D
S31502001A4853FB23463A4669463C4834702C7008F0E4
S31502001A58FFFBFFF785FD40F638230122ADF800307B
S31502001A6878214FEA192335488DF8023008F03CFBF5
S31502001A7823463A466946314834702C7008F0E8FB2A
S31502001A88FFF76EFD40F63833012278212B48ADF870
S31502001A9800308DF8029008F027FB23463A4669463D
S31502001AA8264834702C7008F0D3FBFFF759FD132330
S31502001AB80122782121488DF80230ADF800A008F0FD
S31502001AC813FB23463A4669461C4834702C7008F0C4
S31502001AD8BFFBFFF745FDA3230122782117488DF89E
S31502001AE80230ADF800A008F0FFFA23463A466946E6
S31502001AF8124834702C7008F0ABFBFFF731FD08B0C2
S31502001B08BDE8F0874FF4A87340F020008DF8020074
S31502001B18012278210948ADF8003008F0E5FA0023D9
S31502001B28054E074D03226946044833702B7008F0A8
S31502001B388FFBFFF715FDF4E6BB550022405600223F
S31502001B48BA5500222DE9F04380234FF4036489B085
S31502001B58012278213748ADF800408DF8023008F0A6
S31502001B68C3FA0023344FDFF8E0800322694631487E
S31502001B783B7088F8003008F06BFBFFF7F1FC4FF476
S31502001B887A7132200AF0FAFA2C4C2D4E294D04F5B8
S31502001B98507934F8023C94F800C05BBA01227821E5
S31502001BA828468DF802C0ADF8003008F09DFA0023E9
S31502001BB80322694628463B7088F8003008F048FB3D
S31502001BC8FFF7CEFC4FF47A7105200AF0D7FA34F8FB
S31502001BD8020C01226946FFF7F5FC0434A14526F8F2
S31502001BE8020FD6D14FF47A7164200AF0C7FA154C5F
S31502001BF8104D04F5A87694F802C034F8043B012285
S31502001C085BBA782128468DF802C0ADF8003008F094
S31502001C186BFA00230322694628463B7088F800308F
S31502001C2808F016FBFFF79CFCA642E4D109B0BDE812
S31502001C38F08300BF40560022BB550022AA000022AC
S31502001C481654002200000022BA5500222DE9F04758
S31502001C580024032641F2322A794D88B0DFF8EC8156
S31502001C68784F8146012278212846ADF800A08DF8E2
S31502001C78026008F039FA234632466946284688F849
S31502001C8800403C7008F0E4FAFFF76AFC40F234635D
S31502001C98ADF800306C4BC9EBC90913F809100122DB
S31502001CA88DF8021028467821994408F01DFA234631
S31502001CB832466946284688F800403C7008F0C8FA59
S31502001CC8FFF74EFC4FF03403ADF8003099F80130B7
S31502001CD80122782128468DF8023008F005FA2346B3
S31502001CE832466946284688F800403C7008F0B0FA41
S31502001CF8FFF736FC4FF49A73ADF8003099F80230C4
S31502001D080122782128468DF8023008F0EDF923469B
S31502001D1832466946284688F800403C7008F098FA28
S31502001D28FFF71EFC4FF40D73ADF8003099F8033037
S31502001D380122782128468DF8023008F0D5F9234683
S31502001D4832466946284688F800403C7008F080FA10
S31502001D58FFF706FC4FF44D73ADF8003099F80430DE
S31502001D680122782128468DF8023008F0BDF923466B
S31502001D7832466946284688F800403C7008F068FAF8
S31502001D88FFF7EEFB40F23443ADF8003099F8053020
S31502001D980122782128468DF8023008F0A5F9234653
S31502001DA832466946284688F800403C7008F050FAE0
S31502001DB8FFF7D6FB40F23453ADF8003099F80630F7
S31502001DC80122782128468DF8023008F08DF923463B
S31502001DD832466946284688F800403C7008F038FAC8
S31502001DE8FFF7BEFB13230122782128468DF802301D
S31502001DF8ADF800A008F078F9234632466946284627
S31502001E0888F800403C7008F023FAFFF7A9FBA323E1
S31502001E180122782128468DF80230ADF800A008F094
S31502001E2863F9324669462346284688F800403C70DC
S31502001E3808F00EFAFFF794FB08B0BDE8F08700BF7A
S31502001E4840560022BA55002240EB0002BB5500223A
S31502001E582DE9F04F0024032641F2322B554D89B065
S31502001E68DFF85881544F8246012278212846ADF878
S31502001E7800B08DF8026008F037F923463246694603
S31502001E88284688F800403C7008F0E2F9FFF768FB3C
S31502001E9848F25503DFF82891ADF8003019F82A30D0
S31502001EA80122782128468DF8023008F01DF92346CA
S31502001EB832466946284688F800403C7008F0C8F958
S31502001EC8FFF74EFB48F2553309EB8A09ADF80030A5
S31502001ED899F801300122782128468DF8023008F057
S31502001EE803F9234632466946284688F800403C707C
S31502001EF808F0AEF9FFF734FB48F25543ADF8003067
S31502001F0899F802300122782128468DF8023008F025
S31502001F18EBF8234632466946284688F800403C7064
S31502001F2808F096F9FFF71CFB4FF45473ADF800302E
S31502001F3899F803300122782128468DF8023008F0F4
S31502001F48D3F8234632466946284688F800403C704C
S31502001F5808F07EF9FFF704FB1323012278212846AD
S31502001F688DF80230ADF800B008F0BEF823463246C6
S31502001F786946284688F800403C7008F069F9FFF778
S31502001F88EFFAA3230122782128468DF80230ADF80C
S31502001F9800B008F0A9F8324669462346284688F86A
S31502001FA800403C7008F054F9FFF7DAFA09B0BDE8C8
S31502001FB8F08F00BF40560022BA550022BB550022B8
S31502001FC818EB00022DE9F04141F2322300244FF0CA
S31502001FD8030888B00746012278213B4E3B4D3C4810
S31502001FE8ADF800308DF8028008F07EF823464246A6
S31502001FF86946374834702C7008F02AF9FFF7B0FAA8
S3150200200848F2557301227821ADF8003030483B0179
S315020020188DF8023008F068F82346424669462C488D
S3150200202834702C7008F014F9FFF79AFAA74248F6AA
S31502002038550340DB012278212548ADF800308DF89A
S31502002048022008F051F82346424669462048347071
S3150200205841F232272C70002408F0FAF8FFF780FACA
S315020020681323012278211A488DF80230ADF8007040
S3150200207808F03AF8234669460322154834702C704C
S3150200208808F0E6F8FFF76CFAA32301227821104834
S315020020988DF80230ADF8007008F026F803222346C0
S315020020A869460B4834702C7008F0D2F8FFF758FAD4
S315020020B808B0BDE8F081092278218DF8022004488B
S315020020C80122ADF80030BCE7BB550022BA55002202
S315020020D8405600222DE9F04F0024032641F2322B06
S315020020E8404D89B0DFF80091DFF8008107460122EA
S315020020F878212846ADF800B08DF8026007F0F4FFA3
S31502002108234632466946284689F8004088F8004040
S3150200211808F09EF8FFF724FA48F25563DFF8D0A0D4
S315020021283744ADF800301AF81730012278212846CC
S315020021388DF802300AEB470A07F0D6FF23463246E5
S315020021486946284689F8004088F8004008F080F871
S31502002158FFF706FA9AF8013001228DF8023048F2A2
S31502002168555378212846ADF8003007F0BDFF2346BF
S3150200217832466946284689F8004088F8004008F041
S3150200218867F8FFF7EDF913230122782128468DF81F
S315020021980230ADF800B007F0A7FF2346324669467B
S315020021A8284689F8004088F8004008F051F8FFF7F9
S315020021B8D7F9A3230122782128468DF80230ADF8F3
S315020021C800B007F091FF324669462346284689F849
S315020021D8004088F8004008F03BF8FFF7C1F909B05B
S315020021E8BDE8F08F40560022BB550022BA550022A0
S315020021F804EB00022DE9F04741F2322300240326BC
S3150200220888B0DFF8D081704F0546012278216F48E1
S31502002218ADF800308DF8026007F066FF23463246B5
S3150200222869466A4888F800403C7008F011F8FFF7DA
S3150200223897F948F25313ADF800301C23012278218E
S3150200224862488DF8023007F04FFF23463246694648
S315020022585E4888F800403C7007F0FAFFFFF780F9FD
S3150200226848F25323ADF800305A2301227821574801
S315020022788DF8023007F038FF23463246694653483E
S3150200228888F800403C7007F0E3FFFFF769F948F267
S315020022985333ADF800300623012278214B488DF8D6
S315020022A802304FF0530A07F01FFF234688F8004012
S315020022B83C70842432466946444807F0C9FF444EB6
S315020022C8FFF74EF9E81C00EB4000DFF8009106EB39
S315020022D84006002516F8013B012278218DF80140B7
S315020022E8484601348DF802308DF800A0E4B207F0B2
S315020022F8FBFE032269462B46484688F800503D7085
S3150200230807F0A6FFFFF72CF98A2CE2D1982348F6A4
S315020023185334012278212D48ADF800408DF8023059
S31502002328012407F0E1FE2B4669460322274888F86E
S3150200233800503D7007F08CFFFFF712F948F6532359
S31502002348224678212148ADF800308DF8024007F080
S31502002358CBFE2B46694603221C4841F2322688F8F0
S3150200236800503D7007F074FFFFF7FAF81323224670
S31502002378782116488DF80230ADF8006007F0B4FEF1
S315020023882B4669460322114888F800503D7007F02B
S315020023985FFFFFF7E5F8A323224678210B488DF85D
S315020023A80230ADF8006007F09FFE03222B4669460D
S315020023B8064888F800503D7007F04AFFFFF7D0F844
S315020023C808B0BDE8F08700BFBA5500224056002281
S315020023D8D8EA0002BB5500222DE9F047002403265D
S315020023E841F232296E4D88B0DFF8C0816D4F8246C0
S315020023F8012278212846ADF800908DF8026007F090
S3150200240873FE234632466946284688F800403C70E1
S3150200241807F01EFFFFF7A4F840F63A730AEB060028
S31502002428ADF80030604B00EB400013F8101003EBD8
S31502002438400A8DF8021001227821284607F054FE38
S31502002448234632466946284688F800403C7007F01B
S31502002458FFFEFFF785F841F23A03ADF800309AF825
S3150200246801300122782128468DF8023007F03CFE19
S31502002478234632466946284688F800403C7007F0EB
S31502002488E7FEFFF76DF841F23A13ADF800309AF815
S3150200249802300122782128468DF8023007F024FE00
S315020024A8234632466946284688F800403C7007F0BB
S315020024B8CFFEFFF755F841F63A33ADF800309AF8F1
S315020024C803300122782128468DF8023007F00CFEE7
S315020024D8234632466946284688F800403C7007F08B
S315020024E8B7FEFFF73DF841F63A63ADF800309AF8C1
S315020024F804300122782128468DF8023007F0F4FDCF
S31502002508234632466946284688F800403C7007F05A
S315020025189FFEFFF725F841F63A73ADF800309AF8B0
S3150200252805300122782128468DF8023007F0DCFDB5
S31502002538234632466946284688F800403C7007F02A
S3150200254887FEFFF70DF813230122782128468DF816
S315020025580230ADF8009007F0C7FD234632466946B9
S31502002568284688F800403C7007F072FEFEF7F8FF2E
S31502002578A3230122782128468DF80230ADF800906F
S3150200258807F0B2FD324669462346284688F80040D7
S315020025983C7007F05DFEFEF7E3FF08B0BDE8F08782
S315020025A840560022BA550022A8EA0002BB5500226C
S315020025B830B52C4C83B02078FFF73AF84FF47A718D
S315020025C8642009F0DBFD2389E288A1886088FFF789
S315020025D89FF84FF47A71642009F0D0FD658A238A40
S315020025E8E289A189A07A0095FFF770F94FF47A710A
S315020025F8642009F0C3FD94F91B00FFF7E3FC4FF4CE
S315020026087A71642009F0BAFD94F91A00FFF7F2FD0F
S315020026184FF47A71642009F0B1FD94F91C00FFF7B2
S3150200262859FD4FF47A71642009F0A8FD94F91E0049
S31502002638FFF7D2FE4FF47A71642009F09FFD607E9F
S31502002648FFF704FB4FF47A71642009F097FD607F67
S31502002658FFF7FEFB4FF47A71642003B0BDE8304001
S3150200266809F08CBDE8030022F0B50125002442F2E8
S31502002678303389B02A467821204F214E2148ADF8B9
S3150200268800308DF8025007F02FFD032223466946D3
S315020026981C483C70347007F0DBFDFEF761FF04222C
S315020026A842F2302378218DF8022016482A46ADF8E0
S315020026B8003007F019FD03222346694611483C708B
S315020026C841F28935347007F0C3FDFEF749FF01224E
S315020026D8694643F22300FEF775FF013D044609D019
S315020026E84FF47A710A2009F049FD002CEFD12046F1
S315020026F809B0F0BD0124204609B0F0BDBB55002241
S31502002708BA5500224056002200293BD02DE9F04F47
S3150200271806460D464FF4004B0027DFF86CA0DFF89B
S315020027286C90DFF86C8089B008E0FEF719FF2D1B64
S31502002738ADB25C44F0B11FFA84FBFDB11E2D2C46E6
S3150200274828BF1E2431469BFA9BF322460DF102004E
S31502002758ADF800300BF04CFFA21C00236946404638
S3150200276892B28AF80070264489F8007007F070FD64
S315020027780028DAD0FF2009B0BDE8F08F002009B0A2
S31502002788BDE8F08F00207047BB550022BA550022DB
S31502002798405600222DE9F0414FF47A7188B0322072
S315020027A8002409F0EBFC4FF030082023AB4DAC4E69
S315020027B801227821AB488DF80230ADF8008007F087
S315020027C893FC032223466946A64834702C7007F008
S315020027D83FFDFEF7C5FE40F65D71A348FFF794FF7D
S315020027E842F23023012278219E48ADF800308DF856
S315020027F8024007F079FC0322234669469948347059
S315020028082C7007F025FDFEF7ABFE42F230330122AB
S3150200281878219448ADF800308DF8024007F064FC40
S315020028280322234669468F4834702C7007F010FD40
S31502002838FEF796FE42F23043012278218948ADF826
S3150200284800308DF8024007F04FFC03222346694602
S31502002858844834702C7007F0FBFCFEF781FE42F2C6
S315020028683053012278217F48ADF800308DF80240B6
S3150200287807F03AFC0322234669467A4834702C70DC
S3150200288807F0E6FCFEF76CFE42F23063012278217D
S315020028987448ADF800308DF8024007F025FC032293
S315020028A8234669466F4834702C7007F0D1FCFEF750
S315020028B857FE42F23073012278216A48ADF8003099
S315020028C88DF8024007F010FC032223466946654844
S315020028D834702C7007F0BCFCFEF742FE42F6300359
S315020028E8012278215F48ADF800308DF8024007F0E2
S315020028F8FBFB0322234669465A48FF2734702C708D
S3150200290807F0A6FCFEF72CFE42F6301301227821C8
S315020029185448ADF800308DF8027007F0E5FB2346FF
S31502002928032269464F4834702C7007F091FCFEF773
S3150200293817FE012278214B48ADF800808DF8024037
S3150200294807F0D2FB032223466946464834702C70A8
S3150200295807F07EFCFEF704FE4FF486638DF80270DC
S315020029684FF00007012278213E48ADF8003007F003
S31502002978BBFB2346032269463A4834702C7007F09B
S3150200298867FCFEF7EDFD0122782136488DF80240F4
S31502002998ADF8007007F0A8FB2346032269463148C2
S315020029A834702C7007F054FCFEF7DAFD0122782108
S315020029B82C48ADF800708DF8024007F095FB2346C7
S315020029C803226946274834702C7007F041FCFEF74B
S315020029D8C7FD012278212348ADF800708DF8024020
S315020029E807F082FB2346032269461E4834702C7080
S315020029F807F02EFCFEF7B4FD012278211948ADF83E
S31502002A0800708DF8024007F06FFB032223466946E1
S31502002A18144834702C7007F01BFC6525FEF7A0FDE0
S31502002A280122694643F22900FEF7CCFD4FF47A717A
S31502002A3804460A2009F0A2FB013D0AD0702CEFD108
S31502002A484FF47A71322009F099FB002008B0BDE8EC
S31502002A58F081012008B0BDE8F08100BFBA55002216
S31502002A68BB55002240560022080400220368DB07F1
S31502002A7802D50122014B1A70704700BFB8550022D1
S31502002A880379022B04D0032B02D0012B04D0704702
S31502002A980122034B1A707047024A1370704700BF2F
S31502002AA8BB550022BA550022022800D070470249B7
S31502002AB8024807F00FBB00BF3CF70002BC550022D4
S31502002AC82DE9F04F4AF2015200244FF002755A4B93
S31502002AD885B05A495D645A4883F85440A3F864207D
S31502002AE806F05AFA5749584807F000FDFFF72AF840
S31502002AF8FFF75EFDFFF74EFEFFF7B6FD5349544852
S31502002B0808F0DEFE5349544808F060F95349544820
S31502002B1806F0F0FC524806F00FFCFEF7EBFC4E48B6
S31502002B2807F09AFF204601F0CDFE2146074601F03E
S31502002B382FFF14223846114604F058FF0346494E21
S31502002B48194638460393DFF8289104F08BFFDFF81D
S31502002B58248131783E4809FB018108F087FEDFF8B7
S31502002B6818B1414C414D9BF80030002B60D04FF014
S31502002B78000A01214FF448734FF4F0728BF800A053
S31502002B8801913178009209FB01811A46384605F00F
S31502002B981FFF51464FF47F02384600F031FE4FF4CC
S31502002BA88C73642200931146384600F0EBFC0399B5
S31502002BB85246384604F0B2FF384601F0A1FF337890
S31502002BC808F01F0109FB0383BFF34F8F6FEA030E59
S31502002BD803F53B2202F500620A4496444FEA5E1E5A
S31502002BE80EF1010E4EF001E0C5F8683220330FF0FF
S31502002BF805C8BFF34F8FBFF36F8F23782BB9012018
S31502002C080AF06CFF2378002BF9D000222270317863
S31502002C18114809FB018107F03DFF33780C48B3FAE6
S31502002C2883F35B093370317809FB018108F01EFED4
S31502002C3801200AF053FF96E700F000400CED00026F
S31502002C481456002274ED000240560022DCEC000203
S31502002C58F455002264EB0002C455002208EC000277
S31502002C68D4550022B95500221154002200ED00E085
S31502002C7800B80B0000000070B8550022704700BF6C
S31502002C88FFF7FCBF00BE704738B5164C4FF0FF3150
S31502002C9820680AF0F1F9012803D000212068FFF71D
S31502002CA8F1FF114B1A7802B138BD01221A70FFF7EB
S31502002CB8E7FF0E4D2B68013B2B60002BF4D0002357
S31502002CC820681A46194609F0EDFF0128F2D00021BC
S31502002CD82068FFF7D7FF2B68013B2B60002BEED14C
S31502002CE838BD00BF885B00228C5B0022905B002205
S31502002CF838B500230B4D0C4C01214FF480700B4A5A
S31502002D082B60237009F090FF094B186028B100F078
S31502002D1837F80AF0ADFD002038BD0146FFF7B2FFCD
S31502002D28F5E700BF905B00228C5B0022405B002225
S31502002D38885B0022802330B4034D044C05600C6086
S31502002D48136030BC704700BFE05A0022E0580022E8
S31502002D58802330B4034D044C05600C60136030BC0C
S31502002D68704700BF805800228056002210B50446DC
S31502002D78FFF78AFF2046BDE81040FFF7A1BE00BF55
S31502002D8830B501250C480D4C036883B059190194D6
S31502002D984FF4807201600A4B0A490B4800950AF003
S31502002DA837FDA84201D103B030BD0021206803B027
S31502002DB8BDE83040FFF766BF905B0022945B0022B5
S31502002DC838F70002A4ED0002752D00022DE9F04F36
S31502002DD885B0BDF93860BDF93CC056B3BCF1000FE9
S31502002DE827DD98460023A2F1100722F00F0B914621
S31502002DF81A463744A8F110066644BFB2B6B207F1BE
S31502002E080F0E2EF00F0E06F10F0C2CF00F0C28F0F9
S31502002E180F0A6BF30F036EF30F020D466AF31F4395
S31502002E286CF31F4202A904460293039205F038FE88
S31502002E3818B9002005B0BDE8F08F2046294604F0EF
S31502002E48DDFE95F8D5303FB2980736B233D4D907A6
S31502002E5800F14A8100232946204602AA009302F07D
S31502002E6863FA064600232946204602AA04F0AAFA6D
S31502002E780023294602AA204605F0B8FB0022D4F808
S31502002E88B83103F10801C4F8B811C3E90026D4F829
S31502002E98BC31013B9342C4F8BC3103DC2046D4F86A
S31502002EA8C03198472046002202A905F065F901209B
S31502002EB805B0BDE8F08FDA0700F1168149EA070383
S31502002EC848EA06021B0702F00F0200F0C982BDF9A2
S31502002ED80830D4F8B811A3EB09031B0303F58033B2
S31502002EE801F10800C4F8B8014B6004230B60D4F85A
S31502002EF8BC31013BC4F8BC31002A00F00582002B24
S31502002F0803DC2046D4F8C03198470A214FF48032B0
S31502002F18D4F8B83103F10800C4F8B801C3E90012BD
S31502002F28D4F8BC31013B002BC4F8BC3103DC204683
S31502002F38D4F8C031984700221021D4F8B83103F1E9
S31502002F480800C4F8B801C3E90012D4F8BC31013B41
S31502002F589342C4F8BC3103DC2046D4F8C031984702
S31502002F680521BDF90830D4F8B821FF1A3B0303F549
S31502002F78803302F10800C4F8B801C2E90013D4F894
S31502002F88BC31013B002BC4F8BC3103DC2046D4F823
S31502002F98C03198470B22D4F8B831DA4903F1080050
S31502002FA8C4F8B801C3E90021D4F8BC31013B002BAF
S31502002FB8C4F8BC3103DC2046D4F8C0319847002255
S31502002FC81121D4F8B83103F10800C4F8B801C3E9ED
S31502002FD80012D4F8BC31013B9342C4F8BC3103DC7D
S31502002FE82046D4F8C03198470621BDF90A30D4F8EC
S31502002FF8B821A3EB08031B0303F5803302F108008B
S31502003008C4F8B801C2E90013D4F8BC31013B002B5D
S31502003018C4F8BC3103DC2046D4F8C0319847D4F84A
S31502003028B831002103F10802C4F8B8210C22C3E919
S315020030380021D4F8BC31013B8B42C4F8BC3103DC15
S315020030482046D4F8C0319847D4F8B8314FF48031C5
S3150200305803F10802C4F8B8211222C3E90021D4F800
S31502003068BC31013B002BC4F8BC3103DC2046D4F842
S31502003078C03198470721BDF90A30D4F8B821F61AA3
S31502003088330303F5803302F10800C4F8B801C2E934
S315020030980013D4F8BC31013B002BC4F8BC3103DC65
S315020030A82046D4F8C031984700220D21D4F8B83109
S315020030B803F10800C4F8B801C3E90012D4F8BC3118
S315020030C8013B9342C4F8BC3103DC2046D4F8C03134
S315020030D898471322D4F8B83103F10801C4F8B81195
S315020030E88849C3E90021F7E00421BDF90830D5F87B
S315020030F81021A3EB090302FB03F302EB1312D4F824
S31502003108B83103F10800C4F8B801C3E90012D4F8CB
S31502003118BC31013B002BC4F8BC3140F37E810A2244
S31502003128D4F8B831D5F8101103F10800C4F8B8017B
S31502003138C3E90021D4F8BC31013B002BC4F8BC31E9
S3150200314840F3898100221021D4F8B83103F108002E
S31502003158C4F8B801C3E90012D4F8BC31013B934262
S31502003168C4F8BC3140F372810521BDF90830D5F89F
S315020031781021FB1A02FB03F302EB1312D4F8B8313F
S3150200318803F10800C4F8B801C3E90012D4F8BC3147
S31502003198013B002BC4F8BC3140F353810B21D5F80F
S315020031A810315A42D4F8B83103F10800C4F8B8010C
S315020031B8C3E90012D4F8BC31013B002BC4F8BC3178
S315020031C840F33A8100221121D4F8B83103F10800FC
S315020031D8C4F8B801C3E90012D4F8BC31013B9342E2
S315020031E8C4F8BC3140F30F810621BDF90A30D5F87F
S315020031F81021A3EB080302FB03F302EB1312D4F824
S31502003208B83103F10800C4F8B801C3E90012D4F8CA
S31502003218BC31013B002BC4F8BC3140F3EF80D4F833
S31502003228B831002103F10802C4F8B8210C22C3E917
S315020032380021D4F8BC31013B8B42C4F8BC3140F3BF
S31502003248E7801222D4F8B831D5F8101103F1080034
S31502003258C4F8B801C3E90021D4F8BC31013B002BFC
S31502003268C4F8BC3140F3C580BDF90A30D5F810213F
S31502003278F31A02FB03F302EB13120723D4F8B8116D
S3150200328801F10800C4F8B801C1E90032D4F8BC312A
S31502003298013B002BC4F8BC3140F3C98000220D2142
S315020032A8D4F8B83103F10800C4F8B801C3E900122A
S315020032B8D4F8BC31013B9342C4F8BC3140F3B28026
S315020032C8D4F8B831D5F8102103F10801C4F8B811B9
S315020032D813215242C3E90012D4F8BC31013B002B38
S315020032E8C4F8BC3103DC2046D4F8C03198470F260F
S315020032F8042300962946204602AA02F015F8064635
S31502003308B0E500BF0000FFFF002B03DC2046D4F81F
S31502003318C0319847D4F8B8314FF4803103F1080226
S31502003328C4F8B8210A22C3E90021D4F8BC31013B0A
S31502003338002BC4F8BC3103DC2046D4F8C0319847C8
S31502003348D4F8B831002103F10802C4F8B8211022D2
S31502003358C3E90021D4F8BC31013B8B42C4F8BC3125
S3150200336803DC2046D4F8C03198470521BDF9083058
S31502003378D4F8B821FB1A1B0303F5803302F10800BF
S31502003388C4F8B801C2E90013D4F8BC31013B002BDA
S31502003398C4F8BC3103DC2046D4F8C03198470B2266
S315020033A8D4F8B83103F10801C4F8B8117449C3E96D
S315020033B80021D4F8BC31013B002BC4F8BC3103DC34
S315020033C82046D4F8C031984700221121D4F8B831E2
S315020033D803F10800C4F8B801C3E90012D4F8BC31F5
S315020033E8013B9342C4F8BC3140F3C480032602234E
S315020033F87FE72046D4F8C031984735E72046D4F807
S31502003408C03198470BE72046D4F8C0319847EBE617
S315020034182046D4F8C031984713E72046D4F8C0317D
S3150200342898477CE62046D4F8C031984748E72046B4
S31502003438D4F8C031984731E72046D4F8C0319847C6
S31502003448C0E62046D4F8C0319847A7E62046D4F805
S31502003458C031984788E62046D4F8C031984771E6C5
S31502003468002A3FF4F7AC0421BDF90A30D4F8B82192
S31502003478A3EB08031B0303F5803302F10800C4F823
S31502003488B801C2E90013D4F8BC31013B002BC4F8D9
S31502003498BC3103DC2046D4F8C0319847D4F8B83199
S315020034A8002103F10802C4F8B8210A22C3E900215F
S315020034B8D4F8BC31013B8B42C4F8BC3103DC20464C
S315020034C8D4F8C0319847D4F8B8314FF4803103F1B3
S315020034D80802C4F8B8211022C3E90021D4F8BC3185
S315020034E8013B002BC4F8BC3103DC2046D4F8C031BA
S315020034F898470521BDF90A30D4F8B821F31A1B03F7
S3150200350803F5803302F10800C4F8B801C2E90013D2
S31502003518D4F8BC31013B002BC4F8BC3103DC20468D
S31502003528D4F8C031984700220B21D4F8B83103F1F8
S315020035380800C4F8B801C3E90012D4F8BC31013B4B
S315020035489342C4F8BC3103DC2046D4F8C03198470C
S315020035581122D4F8B83103F10801C4F8B8110849A0
S31502003568C3E90021D4F8BC31013B002BC4F8BC31B5
S315020035783FF73CAF2046D4F8C031984736E700BF3C
S315020035880000FFFF2DE9F04FB0F96C4091B0002C16
S31502003598BDF968C044DD102C0F4606469846C16A36
S315020035A80BD091F8D730012B3ED1B1F9D830A342CE
S315020035B83ADD91F8D530DB0736D41FFA8CFA95B284
S315020035C8A2B2AB1AB8B20AEB420B0FFA83F90FFA98
S315020035D88BFB821A4B46079012B230460094CDF8FE
S315020035E804B0FFF7F3FBCDE900844B463A46F16A8D
S315020035F83046FFF7EBFB0798CDF804B000EB08025C
S3150200360800944B46F16A12B230465544FFF7DEFB88
S31502003618F16A3A463046CDE900842BB2FFF7D6FB6B
S31502003628002011B0BDE8F08FBFB292B2A8F1080827
S31502003638ACF1080C94440194B844C4F34F04083F0F
S31502003648083A3F1B121BA044644492B2BFB21FFA47
S3150200365888F8A4B2ADF82220ADF82620ADF820707D
S31502003668ADF82C70ADF82480ADF82880ADF82A4064
S31502003678ADF82E40002304259DED907E0CAA82ED1E
S31502003688807E3046CDE903330295009503F05EFF4E
S31502003698002011B0BDE8F08F2DE9F04106464FF43F
S315020036A8BE7003F00DFE0446002800F096806FF007
S315020036B87F424FF07F434660C4E902224FF4B0527C
S315020036C800254FF48031C4E95333C4F854314FF01E
S315020036D8FF3702201023C4F81C214FF47032C4F8B5
S315020036E8101184F8D5002761C4F8285184F80E51C0
S315020036F8A382D6F88030C4F83421042284F8E9205B
S315020037084FF4002213F0006F3B4B08BF4FF48003BF
S315020037189FED356B9FED367B40F2011E4FF0400C54
S31502003728C4F82C214FF0AA080122C4E94F55C4F85F
S315020037382031C4F84451706D84ED317F034343F45C
S31502003748012343F4C063C4E94581C4F82431C4F8AB
S315020037583011C4F8162084F8D420A4F8D6E0C4F8A8
S31502003768D8C004F11C0084F80F51C4E93F55A4F8E7
S315020037780C21C4E94155C4F8485101F0CDFD04F1C4
S31502003788340001F0C9FD04F14C0001F0C5FD04F155
S31502003798640001F0C1FD04F17C0001F0BDFD04F1F5
S315020037A8940001F0B9FD04F1AC0001F0B5FD0C225C
S315020037B8124B3046C4F8E4302146C4E93757C4F8F8
S315020037C8387184F8E82004F0F9FDF369204623608D
S315020037D8F46186F8C651BDE8F081012586F8C6511E
S315020037E82046BDE8F08100BFAA00000004000000E0
S315020037F80000000010000000080040200103030337
S3150200380803464FF0000C10B45C6A023122F07F4284
S3150200381844F82120596A604691F80E2142F00102C5
S3150200382881F80E2183F8C6C15DF8044B704700BFC4
S315020038386FF07F43D0F84C11027C90F811C0090A48
S3150200384801FB023201FB0C3390F80E1102F07F42A3
S3150200385803F07F4321F00201C0E9542380F80E11D8
S31502003868704700BF2DE9F04F87B0BDF944E0BDF9B6
S31502003878407091F8D5B01FFA8EFCA7EB0C061BF028
S31502003888010FA3EB0C0C1546DDE9128904461FFA53
S3150200389886FA1FFA8CF0149A36B20FFA8CFC00F0EC
S315020038A8C680C3F108030393C7F10803049306FB12
S315020038B806F30CFB0C3303F1FF00002BB8BF0346DB
S315020038C8B1F914A0D1F8100166440EEBDE7106EBCD
S315020038D86106F117A6FB00764FEAE37B059700FB24
S315020038E801661F12002A40F0528172464FF0784054
S315020038F8D3174FF0FF310AF0A1FC524650EA0F21C6
S31502003908D3170AF09BFC0BFB00FB07FB01BBA0FBD2
S3150200391807371BEB070702D50F3347F100079A460D
S31502003928BB46059B019600935AEA2F1BDDE9006701
S3150200393856EA0F17BAEB06026BEB07061346321E58
S3150200394802DAFF3342F100021E46174600290B46E9
S3150200395856EA2F2705DA40F6FF73C318184641F1CF
S3150200396800039B4682465AEA2F3B039B2A1D03FB0A
S315020039780AF77F00002F07F10F03B8BF1F46049B03
S315020039883F1103FB0AFB4FEA4B0B0BF10F03BBF18B
S31502003998000FB8BF9B46D4F8B8314FEA2B1B03F188
S315020039A80801B9F1000F7CD07642A6EB0806C4F8E6
S315020039B8B8111A605E60D4F8BC31013B002BC4F81A
S315020039C8BC3103DC2046D4F8C0319847D4F8B83164
S315020039D87F4203F10802C4F8B8216A1D5F601A60C3
S315020039E8D4F8BC31013B002BC4F8BC3103DC2046B9
S315020039F8D4F8C0319847D4F8B831CBF1000703F1AF
S31502003A080802C4F8B82105F11002C3E90027D4F860
S31502003A18BC31013B002BC4F8BC3103DC2046D4F888
S31502003A28C0319847D4F8B831CAEBCA7A74E050EA7A
S31502003A380A0000F09980C3F10801724BC7F1080722
S31502003A4893FBFEFA06FB06F366440CFB0C3C8CFB66
S31502003A580A2C63464FEAEA0A0AFB01F10AFB07FB4C
S31502003A684F004FEA4B0B002F52EAEF2307F10F03E1
S31502003A78B8BF1F46BBF1000F0BF10F03B8BF9B4639
S31502003A880EEBDE7E06EB6E06A2EB06363F114FEA1A
S31502003A982B1BD4F8B8312A1D03F10801B9F1000F1E
S31502003AA882D14644C4F8B811C3E90026D4F8BC3119
S31502003AB8013B002BC4F8BC3103DC2046D4F8C031E4
S31502003AC89847D4F8B8316A1D03F10801C4F8B81149
S31502003AD8C3E90027D4F8BC31013B002BC4F8BC313A
S31502003AE803DC2046D4F8C0319847D4F8B83103F13C
S31502003AF80802C4F8B82105F11002C3E9002BD4F86C
S31502003B08BC31013B002BC4F8BC3103DC2046D4F897
S31502003B18C0319847D4F8B83103F108014FEA4A068A
S31502003B2805F10B02C4F8B811C3E90026D4F8BC3172
S31502003B38013B002BC4F8BC3103DC2046D4F8C03163
S31502003B489847D4F8B831113503F10802C4F8B821F8
S31502003B58C3E90056D4F8BC31013B002BC4F8BC318A
S31502003B6849DD07B0BDE8F08F274BCEF1080793FB76
S31502003B78FEFA0AFB07F77F00002F07F10F03B8BF0B
S31502003B881F46CEEB4E563F11BB46F60281E7D4F8E6
S31502003B9880305B017FF5A9AE4FF0784393FBFEF3C5
S31502003BA89B0193FBFAF3039A4FEA231A049902FB41
S31502003BB80AF201FB0AFB002A83FB071002F107033C
S31502003BC8B8BF1A46BBF1000F0BF10703B8BF9B46F5
S31502003BD800284FEAE2074FEAEB0B04DA11F10F036A
S31502003BE8194640F100000A46034652EA2F13059980
S31502003BF8A2EB81064DE72046D4F8C03107B0BDE8EE
S31502003C08F04F18470000C0FF0000F8FFF8B5064657
S31502003C1814200D46B76903F053FB002835D000235C
S31502003C288560C360B36E044605EB8505D8074FEA7F
S31502003C38850113D5084603F043FB606010B30023E1
S31502003C482361B36ED90705D4D6F88430DA0613D4BD
S31502003C589B0707D4002323602046F8BD304603F0AD
S31502003C686DFBEAE7A268042102EB8202384692005B
S31502003C7807F0F4FB2061EDE70146384607F0F8FB4A
S31502003C882061E7E7204603F01DFB0024E4E700BFB6
S31502003C98F8B5876911B306460C460CE0304603F0C0
S31502003CA86FFB2A691AB1D6F884309B070DD42846C9
S31502003CB803F008FB94B12546B36E2468DA076968EF
S31502003CC8ECD5084603F0FEFAEBE73846042107F07E
S31502003CD8C9FB284603F0F6FA002CECD1F8BD00BF62
S31502003CE810B583680446186838B100224368C26072
S31502003CF823618368A060E36110BD216A2068FFF72B
S31502003D0885FF10B1A3681860EFE71522236883F8C8
S31502003D18C72110BD2DE9F0414569044682B0002D40
S31502003D283CD0C169AB69002933D10268012BD2F8AC
S31502003D38188040F2978086682F69B268736802EB2A
S31502003D48820203EB820307EB8207F26800690AB173
S31502003D581760F160834207D91A1A013A22F0030260
S31502003D68802104320AF03CFCD6E90123102603EB33
S31502003D78830329699B004046009607F07DFBAB69E1
S31502003D882F61013BAB61204602B0BDE8F041FFF767
S31502003D98A7BF012B23D002B0BDE8F08140F2FF3164
S31502003DA80369774A1A6003695D6006698368321D8A
S31502003DB8DA600369996003F10C02C3690261013B87
S31502003DC8C0E90653FFF78CFF236893F9C731002B26
S31502003DD87DD1A3685B68736002B0BDE8F081E969CA
S31502003DE802680129D2F8188041D9EE680139A76814
S31502003DF8E9617068002800F0AE80FB68002B55D098
S31502003E0818600023FB60A2692369032A0FD8DFE83A
S31502003E1802F05840023340F2FF311A88D96042F064
S31502003E28004242F400021A6003F1100222610021E4
S31502003E381027E369A268013BE361A161D2E9012384
S31502003E4803EB830329699B004046009707F014FB9E
S31502003E587368002B97D0331DEB6072686B692A6111
S31502003E68AB6190E7E9690129BFD88CD1012B04BF60
S31502003E78152382F8C73186E71A6822F07F4242F094
S31502003E8800421A6040F2FF321A6123691433236131
S31502003E98CDE740F2FF311A78996042F0802242F467
S31502003EA800021A6003F10C022261C0E72369344A50
S31502003EB81A60236958602369A2680433D3602369A8
S31502003EC8083340F2FF3243F8042B2361AFE7236934
S31502003ED8A269A3F10C012161032A11D8DFE802F0D5
S31502003EE8162D1E0240F2FF3153F80C2C596022F0AF
S31502003EF87F4242F0004243F80C2C236914332361B3
S31502003F080022E369013BC4E9062344E740F2FF3194
S31502003F18A3F1080243F80C1C2261F1E7194640F2A4
S31502003F28FF3033F80C2C42F0004242F4000243F808
S31502003F380C2C41F8040B2161E2E740F2FF3113F839
S31502003F480C2C43F8041C42F0802242F4000243F887
S31502003F580C2C2361D4E7AA68042102EB82024046AC
S31502003F68920007F07BFA706000287FF446AF0122C0
S31502003F78236883F8C721706800283FF444AF3CE7FA
S31502003F883280808083690269032B0CD8DFE803F04C
S31502003F98100220111146137843F0802343F40003DC
S31502003FA841F8083B01610022C369013BC0E90623C7
S31502003FB8704711461368002223F07F4343F00043FB
S31502003FC841F8103BC3690161013BC0E90623EFE7EB
S31502003FD811461388002243F0004343F4000341F8D4
S31502003FE80C3BC3690161013BC0E90623E0E700BF58
S31502003FF810B504460068816E11F0200104D13B22F7
S3150200400800F5BC700AF0ECFA63686269C4E9023327
S3150200401862B11368D36063691A6812681A616369C0
S315020040285A68DA6163695A699A616368002259684B
S3150200403821619B68E262C4E9062310BD2DE9F047B7
S315020040484FF000080D4686692C6814F0803F14D09C
S31502004058B4F1803F3DD02204E7B23CD5322F00F0BE
S315020040689680394630466A6801F032FA202F65D0C2
S31502004078AC68083514F0803FEAD15FFA84FA5146F3
S3150200408830466A6801F024FABAF1200FC4F3072908
S31502004098C4F307474FEA14644CD049463046AA6827
S315020040A801F016FAB9F1200F40D039463046EA68CF
S315020040B801F00EFA202F35D0214630462A6901F042
S315020040C807FA202C2AD01435BEE7002C42DBFF2F34
S315020040D817D00435B8E72302F7D5FF2FC4F3072410
S315020040E830D0394630466A6801F0F2F9202F55D0A9
S315020040F821463046AA6801F0EBF9202C4AD00C3545
S31502004108A2E7C4F30728B8F1020F02D0B8F1040FE8
S315020041183DD13046043501F0E1F995E7304601F024
S31502004128DDF9D0E7304601F0D9F9C5E7304601F0A6
S31502004138D5F9BAE7304601F0D1F9AEE7304601F0D3
S31502004148CDF995E7022C21D1304601F0C7F9A046F0
S31502004158043579E7394630466A6801F0B9F9202FFD
S31502004168C4F30729C4F3074424D049463046AA684B
S3150200417801F0AEF9B9F1200F18D021463046EA68A7
S3150200418801F0A6F9202C0DD010355DE7A046404671
S31502004198BDE8F087304601F0A1F9B0E7304601F0F4
S315020041A89DF9A5E7304601F099F9EDE7304601F0A9
S315020041B895F9E2E7304601F091F9D6E72DE9F04F95
S315020041C8876EC468D0E96D5117F02007A1EB050880
S315020041D881462268A66983B04FEAE80851D1A94206
S315020041E8236945D002F5BC718946DFF890A10835E6
S315020041F802F18C0B019005E00137B84505F1080577
S3150200420834D9226892F9C72103EB860E701C6ABB61
S3150200421855E9022C1AF8021061B119F9021019B1FE
S315020042285BF822106145E7D04FF0010109F8021048
S315020042384BF822C09A55CEF804C0E26A10F003067B
S3150200424802F10102E262D7D1E2692369013A143323
S31502004258012A2361E261CFD82046A6610137FFF71A
S3150200426859FDB845236905F10805CAD8DDF8049051
S31502004278A6614023D9F8B421C9E96E2303B0BDE883
S31502004288F08FE36A4344E36292F9C731002BF0D117
S3150200429826B32069B8F1000FEBD0424605F10803B0
S315020042A801E0083386B153E90217013A815500EB5A
S315020042B8860106F101061D464F6006F0030608F15F
S315020042C8FF38EED1002ED4D100222369143323619C
S315020042D8E369013B012BC4E906234BD95FEA980738
S315020042E84FF0000605D125E00136BE4205F120054C
S315020042F820D0236893F9C731E3B92A6823691A706B
S31502004308AA685A702A699A70AA69DA706A685A603B
S31502004318EA689A606A69DA60EA691A61E36922698F
S31502004328013B1432012B2261E361DDD82046FFF7F7
S31502004338F1FCD9E718F003089BD008F1010805F14A
S31502004348080305EBC805AC460EE0A169206953E9E6
S3150200435802574A1C083300EB810602F00302634542
S3150200436845547760A26184D0226892F9C721002A4F
S31502004378EBD07EE72046FFF7CDFCAFE778F80002E0
S3150200438838B50446FFF71AFFE06882690369032A0B
S315020043980FD8DFE802F03326021940F2FF451A88E1
S315020043A803F1100142F0004242F400021A60DD6095
S315020043B801610022C369013B012BC0E9062323D907
S315020043C8002084F8C60138BD40F2FF411A68196117
S315020043D822F07F4242F000421A60036914330361F5
S315020043E8E7E740F2FF451A7803F10C0142F0802212
S315020043F842F400021A609D600161DAE740F2FF4268
S3150200440843F8042B0361D4E7FFF784FC002084F801
S31502004418C60138BD38B50446FFF7D0FEE0688269A2
S315020044280369032A0FD8DFE802F03326021940F29D
S31502004438FF251A8803F1100142F0004242F40002F5
S315020044481A60DD6001610022C369013B012BC0E9E4
S31502004458062323D9002084F8C60138BD40F2FF217D
S315020044681A68196122F07F4242F000421A60036913
S3150200447814330361E7E740F2FF251A7803F10C01CA
S3150200448842F0802242F400021A609D600161DAE776
S3150200449840F2FF2243F8042B0361D4E7FFF73AFC04
S315020044A8002084F8C60138BD2DE9F041036882B0C0
S315020044B89D6E15F0010526D1D0E90274BC428046EC
S315020044C89E6912D0236830461BB1E2680AB11B699D
S315020044D81360A368626803EB830321699B00009556
S315020044E806F0CAFF2468A742ECD10025D8F81C00BA
S315020044F8A36862681B1A03EB8303216930469B0093
S31502004508009506F0B9FF02B0BDE8F08103689A6E1D
S31502004518D20720D42DE9F041D0E90264B442074615
S315020045289D690BD0A368626803EB830304212846BE
S315020045389B0006F0A9FF2468A642F3D1FA69A3688C
S3150200454828469B1A03EB830362680421BDE8F041FF
S315020045589B0006F099BF704703689A6ED20726D465
S315020045682DE9F041D0E90264B44207469D6911D0AB
S315020045782368042128461BB1E2680AB11B69136045
S31502004588A368226903EB83039B0006F07DFF246878
S31502004598A642EDD1FA69A36828469B1A03EB830360
S315020045A822690421BDE8F0419B0006F06DBF704701
S315020045B82DE9F0410C46054682B008681746FFF712
S315020045C8FDFDA2692369032A0FD8DFE802F0423506
S315020045D8022840F2FF311A88D96042F0004242F4BA
S315020045E800021A6003F1100222610022E369013B0C
S315020045F8C4E90623EB6F002B55D06369002B46D01E
S315020046086FBB00232046E361FFF784FBA268636958
S31502004618E260002B60D0186902B0BDE8F08140F272
S31502004628FF311A68196122F07F4242F000421A608D
S31502004638236914332361D8E740F2FF311A78996067
S3150200464842F0802242F400021A6003F10C0222614F
S31502004658CBE740F2FF3243F8042B2361C5E7002576
S31502004668206800F003FAE169A268D2E901235B1A1D
S31502004678616903EB830309699B00009506F0FCFE5A
S315020046882046FFF7B5FC002318466362C4E7D5F84F
S31502004698843020469A0730D4DB0629D5FFF75CFF1B
S315020046A8002FAED0ECE7D4F80880D8F8003053B320
S315020046B8A36A01333C2BA3629FD1D8F8006000E0BD
S315020046C8884631463668002EFAD12068FFF7E0FAA6
S315020046D8C8F80060A66290E7D5F8843013F0120F86
S315020046E802D01069002897D1206902B0BDE8F0818E
S315020046F8FFF70CFF002F84D0C2E7FFF7D5FE002F85
S315020047083FF47FAFBCE7A36277E700BFB1F9343065
S315020047180A6B002B0FDD002310B41C46043A42F83C
S31502004728044FB1F9340001339842F8DC00235DF8EE
S31502004738044BCB8670470023CB867047F8B5B1F990
S315020047483400B1F93660431EB3420C461746096B6C
S3150200475806DD731CB00041F82670E3860844F8BDEE
S31502004768103000B2A0860122800002F0ADFDB4F935
S31502004778343001469E422063EBDA35460022B00009
S3150200478801EB860343F8042BB4F934C00135AC4572
S31502004798F8DC731C41F82670E3860844F8BD00BFAE
S315020047A82DE9F843002708604F61D0F87C80064659
S315020047B80C46B8F1000F74D0D8F8003020204B60B0
S315020047C802F07EFD05466061002867D0D8F8080029
S315020047D8800002F075FD8146286000285ED0D8F870
S315020047E808106960D6F88830D8F8042003FB02F26C
S315020047F8AA60D8F804306B6171B1012307606A6850
S315020048089A4206D92A6842F823706A6801339A429C
S31502004818F8D8D5F80090AA68C5F80C9002EB82027F
S315020048280421B069920006F019FEC9F800002B6847
S315020048381B68002B32D069686A692B61C5E90621B3
S315020048486068E06050B300231022A06041682161CD
S3150200485881684020C4E90631C4E90A33A28602F017
S315020048682FFD2063D0B1636903B31B681A68B4F9D4
S315020048783430002B09DD00231D46011F41F8045F71
S31502004888B4F9340001338342F8DB0023214630466B
S31502004898E386FFF753FF0120BDE8F8830020BDE851
S315020048A8F8831146FFF7B2F96060CAE7D6F88420A2
S315020048B8636812F0120F02D01A69002AD7D15A6811
S315020048C8D5E700BFF8B505464FF4EA7002F0F8FCE2
S315020048D80446002857D000264FF0000202234FF460
S315020048E80011A0F8C621C0E90666C0E91236856637
S315020048F841650665FEF7D0FEA6EE100B6A0684ED44
S31502004908087F03D4702002F0DBFC0646002315F06C
S31502004918040F0CBF05210421C4E90D33C4E90F3382
S31502004928C4E91B3384F8C63184F8C4316364636707
S31502004938A4F87830636180EF50602B074FF033009C
S315020049484FF000054FF0010748BF21F00401221D70
S315020049582663676682ED007F40F22712C4F8880054
S31502004968E16504F18C0029462566E56709F038FEFB
S315020049780822064BC4F88050196884F8C851216089
S3150200498884F8C5211C602046F8BD00BF985B00224A
S3150200499870B5044600F076FDA06100285ED03B2281
S315020049A8002104F5BC7009F01BFEE56F7DB1D4F851
S315020049B888102046FFF72AF906462E602046D4F8C4
S315020049C88810FFF723F930602B681A681360D4F849
S315020049D888202046114603F009F80346D4F88820B1
S315020049E823611146204603F001F8226903466061F5
S315020049F8F2B1E8B10025C4E9022263604FF40070FF
S31502004A08656302F05DFC184B4022C4F8C0310346C8
S31502004A180A21C4E96D33A069C4F8BC2184F8C951D6
S31502004A2806F07EFC48B9002384F8C631184670BDE4
S31502004A38012384F8C631184670BDFF232A460A2187
S31502004A48A06906F043FC2A460A21A06906F05AFC28
S31502004A58FF2804BF012384F8C931E4E7052384F853
S31502004A68C631184670BD00BFC5410002806970474D
S31502004A78002843D038B5436E04468B420D4617D0FC
S31502004A88082B1AD0082929D003F0B2F80021626A45
S31502004A9892F80E3143F0010382F80E31626A84F805
S31502004AA8C611656692F80E3143F0010382F80E319B
S31502004AB8002384F8C631184638BD426A616692F800
S31502004AC80E3143F0010382F80E3103F07DF8082D0A
S31502004AD80CD0002384F8C631184638BD426A61668E
S31502004AE892F80E3143F0010382F80E31204603F0A4
S31502004AF847F8002384F8C631184638BD02207047A5
S31502004B0840B110B5044600F0F3FC002384F8C63120
S31502004B18184610BD022070472DE9F04F89B0DDE92D
S31502004B28127C149C07FB07FED4F810411CF0010FF7
S31502004B3808BFA346804618BF4FF0000B03FB03E0ED
S31502004B481CF0020F1D4608BFA2468946164618BF24
S31502004B584FF0000A02F03CFB159B240194FBF0F48B
S31502004B6803B11C60784204FB00F005FB04F44D44D3
S31502004B78241104FB05F50011374400FB1755149B55
S31502004B88C9F10001D3F810210AEB2513029300FBA1
S31502004B9801F304FB163300FB06F604FB0166CDE9B6
S31502004BA80504520802EB23120BEB2616049207960B
S31502004BB89DED045F43460094424264420394019287
S31502004BC89DED007FA3EC045F83ED007FC8F820000B
S31502004BD809B0BDE8F08F00BF2DE9F04F89B0DDE9D5
S31502004BE812B60BFB0BFC6FEA0609804603FB03C0F1
S31502004BF81D468A461746149C02F0EAFA4FF48013B9
S31502004C0886F00206C6F340064FEA094993FBF0F01E
S31502004C18360409F4803904B12060CBF1000300FBA5
S31502004C2803F300FB05F41B115544CAF1000A03FB02
S31502004C380AF2241104FB1722BB4403FB07F704FB01
S31502004C480A77CDE90534121102F5004209EB271756
S31502004C58049207979DED045F424604FB05F503FBA4
S31502004C681B55009406EB2516594264420296019199
S31502004C7803949DED007FA2EC045F82ED007FC8F8E5
S31502004C88203009B0BDE8F08F2DE9F04F89B0DDE993
S31502004C981245EF4385F0020CCCF3400C3F04002B7F
S31502004CA8DDF850904FEA0C4C07F4803704EB020506
S31502004CB803EB01084ADB002C23DBC2F1000AA342FC
S31502004CC84FEA0A3A69DD5E42240494FBF6F402FBD3
S31502004CD804FE04FB05F501FB04F64FEA2E1E2D1110
S31502004CE8C5EB0835AEEB013EAAEB2616C4F1000861
S31502004CF8B9F1000F01D0C9F800304FF480337D496D
S31502004D0865E0C4F1000A4E429A454FEA063BC0F2F4
S31502004D1896801B0493FBFAF301FB03FE08FB03F8D8
S31502004D2802FB03F62D034FEA2E1EC5EB2815CEEB22
S31502004D38023EABEB26165942B9F1000F01D0C9F86B
S31502004D4800A04FF48034DFF8AC8140E0002CC0F2BA
S31502004D5891805E42A6424FEA013A52DD240494FB50
S31502004D68F3F401FB04F604FB05F502FB04FE4FEA25
S31502004D780838C8F100083611A8EB2515C6EB023625
S31502004D880AEB2E1EC4F10008B9F1000F01D0C9F8CA
S31502004D9800304FF48031574B19E01B0493FBF4F3B0
S31502004DA803FB02F2121108FB03F8C2EB013603FBFE
S31502004DB801F12D03AAEB211E05EB28155942B9F17B
S31502004DC8000F38D04FF48038C9F80040494C06F530
S31502004DD80046CDE904647744079706939DED045F80
S31502004DE802466544CDE90251CDF8048000939DED53
S31502004DF8007FA2EC045F82ED007F046209B0BDE881
S31502004E08F08F1B0493FBF4F301FB03FE02FB03F68C
S31502004E1808FB03F82D03C2F1000B4FEA2E1EAAEB7C
S31502004E28261605EB2815CEEB0B3E5942B9F1000FB3
S31502004E3801D0C9F800404FF480382E4CC7E75E42CD
S31502004E48240494FBF6F401FB04F604FB05F502FBC5
S31502004E5804FEC2F1000A36112D11C5EB08350BEB1B
S31502004E682E1EC6EB0A36C4F10008B9F1000F7FF40C
S31502004E7842AF42E7A3424FEA023E1EDA240494FBFB
S31502004E88F3F401FB04F604FB05F5AEEB261602FB6A
S31502004E9804FE4FEA0838C8F100084FEA013AA8EBBF
S31502004EA825150AEB2E1EC4F10008B9F1000F3FF4CE
S31502004EB870AF5B42C9F800306BE764421B0493FB90
S31502004EC8F4F302FB03F6C1F1000A08FB03F803FB3D
S31502004ED801F12D033611AEEB211EC5EB2815C6EBE3
S31502004EE80A365942B9F1000F3FF42BAFC9F8004010
S31502004EF827E700BF0000FFFF10B4002B019C2CDB44
S31502004F08002C16DBA34238DD240494FBF3F44FF499
S31502004F18803304FB01F112036442C2EB2111029AA7
S31502004F28C0E90143002A51EA01915DF8044B016088
S31502004F387047C4F1000C194422449C4512B209B2C6
S31502004F48E2DB1B0493FBF4F303FB02F209034FF4BF
S31502004F5880345B42C1EB2211E1E7002C22DBC3F16C
S31502004F68000CA44514DD240494FBF3F404FB01F1BC
S31502004F780911104BC1EB0231D1E71B0493FBF4F381
S31502004F8802FB03FC4FEA2C1C0A4CCCEB0131C6E7A8
S31502004F981B0493FBF4F303FB02F21211054CC2EB5A
S31502004FA80131BCE719442244A34212B209B2DADD3E
S31502004FB8C7E700BF0000FFFF2DE9F043002BDDE93C
S31502004FC8075EDEF8104138DB002D1EDBAB424ADCF9
S31502004FD84FEA034C9CFBF5FC8CFB04631F4656EA1E
S31502004FE82F4702FB0CF212116542C2EB0132BEF9DF
S31502004FF81430120192FBF3F204EBD47302EB630250
S31502005008C0E901560260BDE8F0836E4219442A449B
S315020050189E4212B209B247DA2D0495FBF3F585FBD7
S315020050280483994658EA2F4901FB05F51203C2EB98
S3150200503825122646C8F10005D9E7002D44DB5F4252
S31502005048AF42C4F100061FDD2D0495FBF3F585FB7F
S315020050580483994658EA2F4901FB05F52D11C5EB3C
S3150200506802324546C3E72D0495FBF3F383FB048519
S31502005078A94658EA2F4901FB03F312032646C2EB57
S315020050882312C8F10005B2E71B0493FBF5F3354674
S3150200509883FB0486B14658EA2F4903FB02F2121132
S315020050A84646C2EB0132A2E71B0493FBF5F383FBE8
S315020050B804652F4656EA2F4703FB02F209032546E3
S315020050C8C1EB2212764292E719442A44AB420FFAFE
S315020050D882FC09B20FDD1A0492FBF5F282FB046325
S315020050E81F4656EA2F470CFB02F209032546C1EB77
S315020050F8221276427BE72D0495FBF3F585FB0483A2
S31502005108994658EA2F4901FB05F52D11C5EB0C32D4
S31502005118664245466BE700BF10B4019C002C03DAD1
S315020051281944224409B212B204FB01F103FB12121A
S315020051381B0383601302029A6442002A53EA03930A
S31502005148240303F50043446003605DF8044B70478B
S315020051582DE9F041069D0646002D0C4690461F464F
S3150200516804DA1C44A84424B20FFA88F805FB05F0B1
S3150200517807FB070002F02CF84FF48013B3FBF0F09C
S315020051886D4200FB05F500FB07F72D11644205FB8E
S3150200519804F43F1107FB1842079B1211002B52EA2F
S315020051A80292C6E9015702F500423260BDE8F08173
S315020051B88268036810B401FB0233544284600360B8
S315020051C85DF8044B704700BFF8B5B1F916C00D4635
S315020051D8ACEB030C8B68069E03FB0CFCB1F914308E
S315020051E804469B1A4A6802FB03C20B681211511C39
S315020051F813F0080F18BF0A4613F0100FA2F58031F4
S3150200520818BF0A46590751BF012740F20127A2F5DE
S31502005218004202F1FF325B0607FA06F704D54FF49D
S31502005228003371088B401F43D4F8B831C2F1000C21
S31502005238079A311D03F10800C4F8B80119608ABB40
S31502005248C3F804C0D4F8BC31013B002BC4F8BC3106
S315020052585DDDD4F8B8316A6803F10801C4F8B811FB
S315020052685A6006F10A021A60D4F8BC31013B002BD7
S31502005278C4F8BC3146DDD4F8B831AA6803F108018E
S315020052881036C4F8B811C3E90062D4F8BC31013B40
S31502005298002BC4F8BC3103DC2046D4F8C031984749
S315020052A83846F8BD4FEA8C125A60D4F8BC31013B35
S315020052B8002BC4F8BC3120DD6A68D4F8B8319201F3
S315020052C803F10801C4F8B8115A6006F10A021A6015
S315020052D8D4F8BC31013B002BC4F8BC3104DDAA6802
S315020052E8D4F8B8319201C9E7D4F8C03120469847B4
S315020052F8AA68D4F8B8319201C0E72046D4F8C0317A
S315020053089847D9E72046D4F8C0319847B3E72046EC
S31502005318D4F8C03198479CE7002380EF50600360B9
S3150200532880ED017F436170472DE9F0411D464B7EB2
S315020053380C46D9078046174682B011D5E269D207CC
S3150200534806D5052D089E6CD9304602B0BDE8F08117
S31502005358042D00F28480089A023522F4000208928B
S315020053689E0738D4089EA37D990719D5627E5207EF
S3150200537816D5E26CD00777D5052DE5D806F08073E9
S315020053880193B7F9023000954046B7F9002004F1B7
S315020053984C01FFF719FFA37D3043013520F40006BF
S315020053A85907D1D5637E1A07CED5636EDB0762D558
S315020053B8052DC9D806F080730193B7F90230B7F9FB
S315020053C800204046009504F16401FFF7FDFE3043D4
S315020053D820F40006B8E7636BD8071BD5052D089E8F
S315020053E8B2D806F080730193B7F9023000954046A9
S315020053F8B7F9002004F13401FFF7E6FE636B304388
S3150200540820F4000613F0400F20F4400018BF0646A9
S315020054180135A8E7042D22D8089B023523F4000695
S31502005428A1E706F080730193B7F902300095B7F940
S31502005438002004F11C01FFF7C7FEE369013513F0EA
S31502005448400F089B40EA030020F4000220F44000C3
S3150200545818BF0246637E08929E0783D5BBE7089E5D
S31502005468304602B0BDE8F081042D3FF66DAF26F452
S315020054780006023594E726F40003052D38BF1E46BA
S3150200548862E700BF38B50546084605F0EDFE044654
S31502005498B8B10122114605F035FF420144BF012386
S315020054A885F8C8318303C5F880000CD5312201215D
S315020054B82046EB6D05F00AFF204605F0D7FFC5F832
S315020054C88400204638BDAB6E43F00103AB66EDE7B8
S315020054D88C4613460121624605F0F8BE10B504460D
S315020054E800220121204605F00DFFC307F8D410BD9E
S315020054F838B5836E05468469D8070AD50121002284
